:100000000C9458000C9480000C9480000C94800098
:100010000C9480000C9480000C9480000C94800060
:100020000C9480000C9480000C9480000C94800050
:100030000C9480000C9480000C9480000C94800040
:100040000C94E2030C9480000C9480000C948000CB
:100050000C9480000C9480000C9480000C94800020
:100060000C942C040C948000000000002500280053
:100070002B00040404040404040402020202020229
:10008000030303030303010204081020408001025C
:1000900004081020010204081020000000080002DB
:1000A00001000003040700000000000000004B05F1
:1000B00011241FBECFEFD8E0DEBFCDBF11E0A0E01E
:1000C000B1E0E6EDFCE002C005900D92AA36B10762
:1000D000D9F722E0AAE6B1E001C01D92A534B2072B
:1000E000E1F710E0C8E5D0E004C02197FE010E94CE
:1000F0006306C735D107C9F70E946B050C946906E2
:100100000C94000090E0FC01E656FF4F2491FC01A6
:10011000EA57FF4F3491FC01EE58FF4FE491EE2374
:10012000C9F0222339F0233001F1A8F4213019F16C
:10013000223029F1F0E0EE0FFF1FE859FF4FA591A3
:10014000B4918FB7F894EC91611126C030953E239D
:100150003C938FBF08952730A9F02830C9F0243090
:1001600049F7809180008F7D03C0809180008F7758
:1001700080938000DFCF84B58F7784BDDBCF84B5DB
:100180008F7DFBCF8091B0008F778093B000D2CF6E
:100190008091B0008F7DF9CF3E2BDACF3FB7F89436
:1001A0008091290290912A02A0912B02B0912C02F9
:1001B00026B5A89B05C02F3F19F00196A11DB11DC2
:1001C0003FBFBA2FA92F982F8827BC01CD01620FFE
:1001D000711D811D911D42E0660F771F881F991FB9
:1001E0004A95D1F708958F929F92AF92BF92CF9286
:1001F000DF92EF92FF924B015C010E94CE006B01F7
:100200007C010E94CE006C197D098E099F09683E11
:10021000734081059105A8F321E0821A9108A10895
:10022000B10888EEC80E83E0D81EE11CF11C8114D1
:100230009104A104B10429F7FF90EF90DF90CF90D3
:10024000BF90AF909F908F90089508950895AF92BA
:10025000BF92CF92DF92EF92FF920F931F93CF93B3
:10026000DF936C017B018B01040F151FEB015E0115
:10027000AE18BF08C017D10759F06991D601ED91AA
:10028000FC910190F081E02DC6010995892B79F749
:10029000C501DF91CF911F910F91FF90EF90DF90FB
:1002A000CF90BF90AF9008952091D201260F3327B1
:1002B000331F21323105ECF42091F601FC0190E06E
:1002C00080E0243069F082E00895A091D20121916C
:1002D000AC014E545E4FA40FB52FB11D2C93019667
:1002E000861798F38091D201680F6093D20180E065
:1002F000089581E008951092F60181E08093F8015D
:100300001092F70161E082E10E94820061E083E1E6
:100310000E948200E9EBF0E080818E7F8083808103
:100320008D7F808388E48093B80085E48093BC004F
:100330000895CF93DF9391E09093B1018823B9F0B2
:10034000C091B800D091BA008091BC008A7B8093A4
:10035000BC0060E082E10E94820060E083E10E94D4
:1003600082000E947B01D093BA00C093B800DF9155
:10037000CF9108950895E091230280912202E81719
:1003800030F4F0E0E457FE4F808190E008958FEF65
:100390009FEF089590912302809122022FEF3FEF6B
:1003A000981748F4E92FF0E0E457FE4F208130E041
:1003B0009F5F90932302C90108958091220290913A
:1003C0002302891B990B0895CF92DF92EF92FF923F
:1003D0000F931F93CF93DF937C01CB018A01209170
:1003E0008B01222389F0EB016B01C40ED51ECC15C5
:1003F000DD0569F06991D701ED91FC910190F081E3
:10040000E02DC7010995F3CF642F0E945401C80164
:10041000DF91CF911F910F91FF90EF90DF90CF90E0
:100420000895CF93DF931F92CDB7DEB769832091F4
:100430008B012223F9F020912002203258F021E094
:1004400030E0FC013383228390E080E00F90DF9165
:10045000CF91089580912102E82FF0E0E559FE4FF9
:10046000998190838F5F809321028093200281E0A5
:1004700090E0ECCF61E0CE0101960E945401F7CFED
:10048000CF92DF92EF92FF920F931F93CF93DF9360
:10049000FC01C48121E020938B01C0936A0110927A
:1004A0002102109220028385682B8DE292E00E9447
:1004B0001102D0912002D13208F092C00E94CE00E9
:1004C0006B017C018091F601811165C082E080930F
:1004D000F60181E08093F8018FEF8093F50110928F
:1004E0001A02D0931902ABE6B1E0E9EFF1E080E047
:1004F000D81385C010921B0280911B02CC0FC82B11
:10050000C0931B028091F701813009F07CC01092EA
:10051000F7010E94CE006B017C0180911B02809349
:10052000BB008091AD019091AE01A091AF01B0915F
:10053000B001892B8A2B8B2B99F00E94CE00009161
:10054000AD011091AE012091AF013091B0016C1955
:100550007D098E099F090617170728073907E0F15B
:100560008091BC0083FDD9CF85EC8093BC000E94B4
:10057000CE006B017C018091F601823009F445C008
:100580008091F5018F3F61F18091F501803241F159
:100590008091F50125C08091AD019091AE01A091AF
:1005A000AF01B091B001892B8A2B8B2B09F48ACF34
:1005B0000E94CE000091AD011091AE012091AF01DB
:1005C0003091B0016C197D098E099F090617170734
:1005D0002807390708F076CF8091AC010E94990175
:1005E000109221021092200210928B01DF91CF9184
:1005F0001F910F91FF90EF90DF90CF9008959D9104
:1006000091938F5F75CF85EEB0CF8091AD019091C2
:10061000AE01A091AF01B091B001892B8A2B8B2B39
:1006200009F4A9CF0E94CE000091AD011091AE0156
:100630002091AF013091B0016C197D098E099F099D
:10064000061717072807390708F095CFC5CF089573
:1006500090E080E00895FC0101900020E9F73197D7
:10066000AF01481B590BBC0189E392E00C942701B0
:1006700085ED8093BC008091AD019091AE01A09179
:10068000AF01B091B0010796A11DB11D23E0B69551
:10069000A795979587952A95D1F72091BC0024FDC1
:1006A00003C01092F60108954091AD015091AE0142
:1006B0006091AF017091B001452B462B472B69F338
:1006C0000097A105B10541F02AE22A95F1F700C093
:1006D0000197A109B109E1CF8091AC010C94990176
:1006E0000F931F93CF938C01C62F0E9440026C2F53
:1006F0006460C8010E9440026C2F6B7FC8010E9499
:10070000400283EC90E00197F1F7CF911F910F9198
:1007100008950F931F93CF93DF938C01D62FC42F8F
:10072000607F642B0E94700380E1D89FB001112488
:100730006C2BC801DF91CF911F910F910C94700326
:1007400040E061E089E392E00E9489038BE39FE14E
:100750000197F1F70895CF93DF93CDB7DEB72897D0
:100760000FB6F894DEBF0FBECDBF98E0E0E0F1E039
:10077000DE01119601900D929A95E1F79091410258
:10078000981708F48FEF90E0880F991F21E030E070
:100790002C0F3D1F820F931FFC016081606840E0B9
:1007A00089E392E028960FB6F894DEBF0FBECDBF66
:1007B000DF91CF910C94890341E00E94890381E08D
:1007C00090E008951F920F920FB60F9211242F936D
:1007D0003F938F939F93AF93BF9380912502909106
:1007E0002602A0912702B09128023091240223E032
:1007F000230F2D3758F50196A11DB11D209324021A
:100800008093250290932602A0932702B09328029A
:100810008091290290912A02A0912B02B0912C0282
:100820000196A11DB11D8093290290932A02A093E5
:100830002B02B0932C02BF91AF919F918F913F916A
:100840002F910F900FBE0F901F90189526E8230F41
:100850000296A11DB11DD2CF1F920F920FB60F921B
:1008600011242F933F934F935F936F937F938F93B5
:100870009F93AF93BF93EF93FF938091B900887FCD
:10088000803609F44AC0F0F5883209F4A7C018F59B
:10089000803109F49BC0B8F4882309F4F9C088308A
:1008A00009F494C0FF91EF91BF91AF919F918F9107
:1008B0007F916F915F914F913F912F910F900FBE5C
:1008C0000F901F901895883109F488C0803251F735
:1008D0008093F50114C0803409F49DC040F4803346
:1008E000B9F38833F9F68093F50185ECB0C0803513
:1008F00009F485C0883509F496C0883499F60E94B9
:100900003803D0CF883909F48CC038F5883729F0FE
:1009100050F4883611F0803729F683E08093F60191
:100920001092F40157C0883809F47BC0803919F05F
:10093000803809F0B7CF8091F401803208F071C09F
:10094000E091F40181E08E0F8093F4018091BB006F
:10095000F0E0EC52FE4F80833DC0803B39F0E0F484
:10096000803A09F479C0883A09F09CCF84E08093FA
:10097000F6011092D3011092D201E0911E02F09183
:100980001F0209958091D20181110FC081E08093EF
:10099000D2011092B20109C0803C09F4A6CF883C74
:1009A00009F4A3CF883B09F07DCFE091D30181E02A
:1009B0008E0F8093D301F0E0EE54FE4F8081809340
:1009C000BB009091D3018091D20129C080911B027C
:1009D0008093BB0085EC8093BC0064CF90911A0299
:1009E00080911902981758F5E0911A0281E08E0F54
:1009F00080931A02F0E0E750FE4F8081E9CFE0914A
:100A00001A0281E08E0F80931A028091BB00F0E001
:100A1000E750FE4F808390911A0280911902981737
:100A2000C8F285E8D8CFE0911A0281E08E0F80935A
:100A30001A028091BB00F0E0E750FE4F8083809166
:100A4000F80181115CCF81E08093F70184EA809303
:100A5000BC001092F60126CF85EC8093BC0010926A
:100A6000F6018091F401803230F4E091F401F0E07D
:100A7000EC52FE4F10826091F40170E0E0911C0294
:100A8000F0911D0284ED91E009951092F4010ACFD6
:100A90001092F50134CFEDE2F2E01382128288EE7B
:100AA00093E0A0E0B0E084839583A683B7838CE0D5
:100AB00091E091838083E9E3F2E0138212828EE178
:100AC00091E09183808387E2848380E1818782E063
:100AD000828713860895789484B5826084BD84B536
:100AE000816084BD85B5826085BD85B5816085BD29
:100AF00080916E00816080936E00109281008091E1
:100B00008100826080938100809181008160809368
:100B10008100809180008160809380008091B1008D
:100B200084608093B1008091B00081608093B000B8
:100B300080917A00846080937A0080917A0082604C
:100B400080937A0080917A00816080937A0080910E
:100B50007A00806880937A001092C100109223027C
:100B60001092220210922102109220020E947B0118
:100B700085E291E090931F0280931E0286E291E04D
:100B800090931D0280931C0210923E0280914302BA
:100B9000823018F098E090933E028093410262E325
:100BA00070E080E090E00E94F3006091440289E3ED
:100BB00092E00E94400268EE73E080E090E00E94C4
:100BC000F30060E389E392E00E947003CBE4D6E493
:100BD000CE010197F1F760E389E392E00E94700390
:100BE0002197F1F760E389E392E00E94700383E5C7
:100BF00092E00197F1F760E289E392E00E947003CE
:100C000060913E02606240E089E392E00E948903C5
:100C100084E080933F0240E06CE089E392E00E9430
:100C200089030E94A00382E08093400240E066E0D6
:100C300089E392E00E94890340E062E089E392E068
:100C40000E9489038BE39FE10197F1F788E080938D
:100C5000440260E089E392E00E9440020E94A00307
:100C6000C0E0D0E080E00E94AB0386E291E00E9409
:100C70002B0381E00E94AB0387E391E00E942B03EA
:100C800068EB7BE080E090E00E94F3000E94A0030C
:100C900080E00E94AB0388E491E00E942B0381E096
:100CA0000E94AB0389E591E00E942B0368EB7BE097
:100CB00080E090E00E94F3000E94A003209791F250
:100CC0000E940000CFCFEE0FFF1F0590F491E02DA2
:060CD0000994F894FFCF27
:100CD6000000400014005400000000001102E4016E
:100CE6002803BA01DD01CA01BB0100000000DC03D4
:100CF600270128032703204573636F6C6120646511
:100D060020456E672E2000206465202050697261A0
:100D16006369636162612000202020205369737437
:100D2600656D61732020202000202020456D6261C2
:0A0D3600726361646F7320202000D7
:00000001FF
